{
  "_format": "hh-sol-artifact-1",
  "contractName": "Verification",
  "sourceName": "contracts/Verification.sol",
  "abi": [
    {
      "inputs": [],
      "stateMutability": "nonpayable",
      "type": "constructor"
    },
    {
      "anonymous": false,
      "inputs": [
        {
          "indexed": true,
          "internalType": "uint256",
          "name": "issueId",
          "type": "uint256"
        },
        {
          "indexed": false,
          "internalType": "string",
          "name": "dataHash",
          "type": "string"
        }
      ],
      "name": "HashStored",
      "type": "event"
    },
    {
      "inputs": [
        {
          "internalType": "uint256",
          "name": "issueId",
          "type": "uint256"
        }
      ],
      "name": "getHash",
      "outputs": [
        {
          "internalType": "string",
          "name": "",
          "type": "string"
        }
      ],
      "stateMutability": "view",
      "type": "function"
    },
    {
      "inputs": [],
      "name": "owner",
      "outputs": [
        {
          "internalType": "address",
          "name": "",
          "type": "address"
        }
      ],
      "stateMutability": "view",
      "type": "function"
    },
    {
      "inputs": [
        {
          "internalType": "uint256",
          "name": "issueId",
          "type": "uint256"
        },
        {
          "internalType": "string",
          "name": "dataHash",
          "type": "string"
        }
      ],
      "name": "storeHash",
      "outputs": [],
      "stateMutability": "nonpayable",
      "type": "function"
    }
  ],
  "bytecode": "0x608060405234801561001057600080fd5b50336000806101000a81548173ffffffffffffffffffffffffffffffffffffffff021916908373ffffffffffffffffffffffffffffffffffffffff160217905550610920806100606000396000f3fe608060405234801561001057600080fd5b50600436106100415760003560e01c80636b2fafa9146100465780638da5cb5b146100765780639b6bd89c14610094575b600080fd5b610060600480360381019061005b91906102ae565b6100b0565b60405161006d919061036b565b60405180910390f35b61007e610155565b60405161008b91906103ce565b60405180910390f35b6100ae60048036038101906100a9919061051e565b610179565b005b60606001600083815260200190815260200160002080546100d0906105a9565b80601f01602080910402602001604051908101604052809291908181526020018280546100fc906105a9565b80156101495780601f1061011e57610100808354040283529160200191610149565b820191906000526020600020905b81548152906001019060200180831161012c57829003601f168201915b50505050509050919050565b60008054906101000a900473ffffffffffffffffffffffffffffffffffffffff1681565b60008054906101000a900473ffffffffffffffffffffffffffffffffffffffff1673ffffffffffffffffffffffffffffffffffffffff163373ffffffffffffffffffffffffffffffffffffffff1614610207576040517f08c379a00000000000000000000000000000000000000000000000000000000081526004016101fe9061064c565b60405180910390fd5b806001600084815260200190815260200160002090816102279190610818565b50817f8e47bbd245c4993a2509ab949526534233054117d2dce9ff1ab944f2c0d50e1682604051610258919061036b565b60405180910390a25050565b6000604051905090565b600080fd5b600080fd5b6000819050919050565b61028b81610278565b811461029657600080fd5b50565b6000813590506102a881610282565b92915050565b6000602082840312156102c4576102c361026e565b5b60006102d284828501610299565b91505092915050565b600081519050919050565b600082825260208201905092915050565b60005b838110156103155780820151818401526020810190506102fa565b60008484015250505050565b6000601f19601f8301169050919050565b600061033d826102db565b61034781856102e6565b93506103578185602086016102f7565b61036081610321565b840191505092915050565b600060208201905081810360008301526103858184610332565b905092915050565b600073ffffffffffffffffffffffffffffffffffffffff82169050919050565b60006103b88261038d565b9050919050565b6103c8816103ad565b82525050565b60006020820190506103e360008301846103bf565b92915050565b600080fd5b600080fd5b7f4e487b7100000000000000000000000000000000000000000000000000000000600052604160045260246000fd5b61042b82610321565b810181811067ffffffffffffffff8211171561044a576104496103f3565b5b80604052505050565b600061045d610264565b90506104698282610422565b919050565b600067ffffffffffffffff821115610489576104886103f3565b5b61049282610321565b9050602081019050919050565b82818337600083830152505050565b60006104c16104bc8461046e565b610453565b9050828152602081018484840111156104dd576104dc6103ee565b5b6104e884828561049f565b509392505050565b600082601f830112610505576105046103e9565b5b81356105158482602086016104ae565b91505092915050565b600080604083850312156105355761053461026e565b5b600061054385828601610299565b925050602083013567ffffffffffffffff81111561056457610563610273565b5b610570858286016104f0565b9150509250929050565b7f4e487b7100000000000000000000000000000000000000000000000000000000600052602260045260246000fd5b600060028204905060018216806105c157607f821691505b6020821081036105d4576105d361057a565b5b50919050565b7f4f6e6c79206f776e65722063616e2063616c6c20746869732066756e6374696f60008201527f6e00000000000000000000000000000000000000000000000000000000000000602082015250565b60006106366021836102e6565b9150610641826105da565b604082019050919050565b6000602082019050818103600083015261066581610629565b9050919050565b60008190508160005260206000209050919050565b60006020601f8301049050919050565b600082821b905092915050565b6000600883026106ce7fffffffffffffffffffffffffffffffffffffffffffffffffffffffffffffffff82610691565b6106d88683610691565b95508019841693508086168417925050509392505050565b6000819050919050565b600061071561071061070b84610278565b6106f0565b610278565b9050919050565b6000819050919050565b61072f836106fa565b61074361073b8261071c565b84845461069e565b825550505050565b600090565b61075861074b565b610763818484610726565b505050565b5b818110156107875761077c600082610750565b600181019050610769565b5050565b601f8211156107cc5761079d8161066c565b6107a684610681565b810160208510156107b5578190505b6107c96107c185610681565b830182610768565b50505b505050565b600082821c905092915050565b60006107ef600019846008026107d1565b1980831691505092915050565b600061080883836107de565b9150826002028217905092915050565b610821826102db565b67ffffffffffffffff81111561083a576108396103f3565b5b61084482546105a9565b61084f82828561078b565b600060209050601f8311600181146108825760008415610870578287015190505b61087a85826107fc565b8655506108e2565b601f1984166108908661066c565b60005b828110156108b857848901518255600182019150602085019450602081019050610893565b868310156108d557848901516108d1601f8916826107de565b8355505b6001600288020188555050505b50505050505056fea2646970667358221220c068a6c7b4db62afe0a0b3a9444b09d055ad5aa00e9b3a232416f820fe564a0b64736f6c63430008140033",
  "linkReferences": {},
  "deployedLinkReferences": {}
}