{
  "_format": "hh-sol-artifact-1",
  "contractName": "CivicRegistry",
  "sourceName": "contracts/CivicRegistry.sol",
  "abi": [
    {
      "inputs": [],
      "stateMutability": "nonpayable",
      "type": "constructor"
    },
    {
      "anonymous": false,
      "inputs": [
        {
          "indexed": true,
          "internalType": "uint256",
          "name": "issueId",
          "type": "uint256"
        },
        {
          "indexed": false,
          "internalType": "string",
          "name": "dataHash",
          "type": "string"
        }
      ],
      "name": "CompletionHashStored",
      "type": "event"
    },
    {
      "anonymous": false,
      "inputs": [
        {
          "indexed": true,
          "internalType": "uint256",
          "name": "issueId",
          "type": "uint256"
        },
        {
          "indexed": false,
          "internalType": "string",
          "name": "dataHash",
          "type": "string"
        }
      ],
      "name": "IssueHashStored",
      "type": "event"
    },
    {
      "anonymous": false,
      "inputs": [
        {
          "indexed": true,
          "internalType": "uint256",
          "name": "userId",
          "type": "uint256"
        },
        {
          "indexed": false,
          "internalType": "string",
          "name": "dataHash",
          "type": "string"
        }
      ],
      "name": "PersonnelHashStored",
      "type": "event"
    },
    {
      "inputs": [
        {
          "internalType": "uint256",
          "name": "issueId",
          "type": "uint256"
        }
      ],
      "name": "getCompletionHash",
      "outputs": [
        {
          "internalType": "string",
          "name": "",
          "type": "string"
        }
      ],
      "stateMutability": "view",
      "type": "function"
    },
    {
      "inputs": [
        {
          "internalType": "uint256",
          "name": "issueId",
          "type": "uint256"
        }
      ],
      "name": "getIssueHash",
      "outputs": [
        {
          "internalType": "string",
          "name": "",
          "type": "string"
        }
      ],
      "stateMutability": "view",
      "type": "function"
    },
    {
      "inputs": [
        {
          "internalType": "uint256",
          "name": "userId",
          "type": "uint256"
        }
      ],
      "name": "getPersonnelHash",
      "outputs": [
        {
          "internalType": "string",
          "name": "",
          "type": "string"
        }
      ],
      "stateMutability": "view",
      "type": "function"
    },
    {
      "inputs": [],
      "name": "owner",
      "outputs": [
        {
          "internalType": "address",
          "name": "",
          "type": "address"
        }
      ],
      "stateMutability": "view",
      "type": "function"
    },
    {
      "inputs": [
        {
          "internalType": "uint256",
          "name": "issueId",
          "type": "uint256"
        },
        {
          "internalType": "string",
          "name": "dataHash",
          "type": "string"
        }
      ],
      "name": "storeCompletionHash",
      "outputs": [],
      "stateMutability": "nonpayable",
      "type": "function"
    },
    {
      "inputs": [
        {
          "internalType": "uint256",
          "name": "issueId",
          "type": "uint256"
        },
        {
          "internalType": "string",
          "name": "dataHash",
          "type": "string"
        }
      ],
      "name": "storeIssueHash",
      "outputs": [],
      "stateMutability": "nonpayable",
      "type": "function"
    },
    {
      "inputs": [
        {
          "internalType": "uint256",
          "name": "userId",
          "type": "uint256"
        },
        {
          "internalType": "string",
          "name": "dataHash",
          "type": "string"
        }
      ],
      "name": "storePersonnelHash",
      "outputs": [],
      "stateMutability": "nonpayable",
      "type": "function"
    }
  ],
  "bytecode": "0x608060405234801561001057600080fd5b50336000806101000a81548173ffffffffffffffffffffffffffffffffffffffff021916908373ffffffffffffffffffffffffffffffffffffffff160217905550610d14806100606000396000f3fe608060405234801561001057600080fd5b506004361061007d5760003560e01c80638da5cb5b1161005b5780638da5cb5b146100fe578063c45df6411461011c578063cf15029c14610138578063fdb55bed146101545761007d565b80631feca94c146100825780632ad3f819146100b25780633846ec02146100e2575b600080fd5b61009c600480360381019061009791906106a2565b610184565b6040516100a9919061075f565b60405180910390f35b6100cc60048036038101906100c791906106a2565b610229565b6040516100d9919061075f565b60405180910390f35b6100fc60048036038101906100f791906108b6565b6102ce565b005b6101066103b9565b6040516101139190610953565b60405180910390f35b610136600480360381019061013191906108b6565b6103dd565b005b610152600480360381019061014d91906108b6565b6104c8565b005b61016e600480360381019061016991906106a2565b6105b3565b60405161017b919061075f565b60405180910390f35b60606002600083815260200190815260200160002080546101a49061099d565b80601f01602080910402602001604051908101604052809291908181526020018280546101d09061099d565b801561021d5780601f106101f25761010080835404028352916020019161021d565b820191906000526020600020905b81548152906001019060200180831161020057829003601f168201915b50505050509050919050565b60606003600083815260200190815260200160002080546102499061099d565b80601f01602080910402602001604051908101604052809291908181526020018280546102759061099d565b80156102c25780601f10610297576101008083540402835291602001916102c2565b820191906000526020600020905b8154815290600101906020018083116102a557829003601f168201915b50505050509050919050565b60008054906101000a900473ffffffffffffffffffffffffffffffffffffffff1673ffffffffffffffffffffffffffffffffffffffff163373ffffffffffffffffffffffffffffffffffffffff161461035c576040517f08c379a000000000000000000000000000000000000000000000000000000000815260040161035390610a40565b60405180910390fd5b8060036000848152602001908152602001600020908161037c9190610c0c565b50817fb7513217f299f987f4ce5f22161a8ee8b52e5a5646693c7dbd69d2fbeb089bfa826040516103ad919061075f565b60405180910390a25050565b60008054906101000a900473ffffffffffffffffffffffffffffffffffffffff1681565b60008054906101000a900473ffffffffffffffffffffffffffffffffffffffff1673ffffffffffffffffffffffffffffffffffffffff163373ffffffffffffffffffffffffffffffffffffffff161461046b576040517f08c379a000000000000000000000000000000000000000000000000000000000815260040161046290610a40565b60405180910390fd5b8060016000848152602001908152602001600020908161048b9190610c0c565b50817f7e0d4ef9259788b288fc8f07445ebdab9796085f8fbe93cd69bfbb8dab508320826040516104bc919061075f565b60405180910390a25050565b60008054906101000a900473ffffffffffffffffffffffffffffffffffffffff1673ffffffffffffffffffffffffffffffffffffffff163373ffffffffffffffffffffffffffffffffffffffff1614610556576040517f08c379a000000000000000000000000000000000000000000000000000000000815260040161054d90610a40565b60405180910390fd5b806002600084815260200190815260200160002090816105769190610c0c565b50817f07adb4f1905069b55bd94410650964270a0083f06476baec1bfabce8a9425bdb826040516105a7919061075f565b60405180910390a25050565b60606001600083815260200190815260200160002080546105d39061099d565b80601f01602080910402602001604051908101604052809291908181526020018280546105ff9061099d565b801561064c5780601f106106215761010080835404028352916020019161064c565b820191906000526020600020905b81548152906001019060200180831161062f57829003601f168201915b50505050509050919050565b6000604051905090565b600080fd5b600080fd5b6000819050919050565b61067f8161066c565b811461068a57600080fd5b50565b60008135905061069c81610676565b92915050565b6000602082840312156106b8576106b7610662565b5b60006106c68482850161068d565b91505092915050565b600081519050919050565b600082825260208201905092915050565b60005b838110156107095780820151818401526020810190506106ee565b60008484015250505050565b6000601f19601f8301169050919050565b6000610731826106cf565b61073b81856106da565b935061074b8185602086016106eb565b61075481610715565b840191505092915050565b600060208201905081810360008301526107798184610726565b905092915050565b600080fd5b600080fd5b7f4e487b7100000000000000000000000000000000000000000000000000000000600052604160045260246000fd5b6107c382610715565b810181811067ffffffffffffffff821117156107e2576107e161078b565b5b80604052505050565b60006107f5610658565b905061080182826107ba565b919050565b600067ffffffffffffffff8211156108215761082061078b565b5b61082a82610715565b9050602081019050919050565b82818337600083830152505050565b600061085961085484610806565b6107eb565b90508281526020810184848401111561087557610874610786565b5b610880848285610837565b509392505050565b600082601f83011261089d5761089c610781565b5b81356108ad848260208601610846565b91505092915050565b600080604083850312156108cd576108cc610662565b5b60006108db8582860161068d565b925050602083013567ffffffffffffffff8111156108fc576108fb610667565b5b61090885828601610888565b9150509250929050565b600073ffffffffffffffffffffffffffffffffffffffff82169050919050565b600061093d82610912565b9050919050565b61094d81610932565b82525050565b60006020820190506109686000830184610944565b92915050565b7f4e487b7100000000000000000000000000000000000000000000000000000000600052602260045260246000fd5b600060028204905060018216806109b557607f821691505b6020821081036109c8576109c761096e565b5b50919050565b7f436976696352656769737472793a2063616c6c6572206973206e6f742074686560008201527f206f776e65720000000000000000000000000000000000000000000000000000602082015250565b6000610a2a6026836106da565b9150610a35826109ce565b604082019050919050565b60006020820190508181036000830152610a5981610a1d565b9050919050565b60008190508160005260206000209050919050565b60006020601f8301049050919050565b600082821b905092915050565b600060088302610ac27fffffffffffffffffffffffffffffffffffffffffffffffffffffffffffffffff82610a85565b610acc8683610a85565b95508019841693508086168417925050509392505050565b6000819050919050565b6000610b09610b04610aff8461066c565b610ae4565b61066c565b9050919050565b6000819050919050565b610b2383610aee565b610b37610b2f82610b10565b848454610a92565b825550505050565b600090565b610b4c610b3f565b610b57818484610b1a565b505050565b5b81811015610b7b57610b70600082610b44565b600181019050610b5d565b5050565b601f821115610bc057610b9181610a60565b610b9a84610a75565b81016020851015610ba9578190505b610bbd610bb585610a75565b830182610b5c565b50505b505050565b600082821c905092915050565b6000610be360001984600802610bc5565b1980831691505092915050565b6000610bfc8383610bd2565b9150826002028217905092915050565b610c15826106cf565b67ffffffffffffffff811115610c2e57610c2d61078b565b5b610c38825461099d565b610c43828285610b7f565b600060209050601f831160018114610c765760008415610c64578287015190505b610c6e8582610bf0565b865550610cd6565b601f198416610c8486610a60565b60005b82811015610cac57848901518255600182019150602085019450602081019050610c87565b86831015610cc95784890151610cc5601f891682610bd2565b8355505b6001600288020188555050505b50505050505056fea264697066735822122015ce29aaaa0556741c497e0e342d3bd82688cb4552e12ad30e8b14f6940f33c264736f6c63430008140033",
  "linkReferences": {},
  "deployedLinkReferences": {}
}